{
  "_format": "hh-sol-artifact-1",
  "contractName": "HoF",
  "sourceName": "contracts/HoF.sol",
  "abi": [
    {
      "inputs": [],
      "stateMutability": "nonpayable",
      "type": "constructor"
    },
    {
      "inputs": [],
      "name": "ArrayNotMatching",
      "type": "error"
    },
    {
      "inputs": [],
      "name": "DoesntExist",
      "type": "error"
    },
    {
      "inputs": [],
      "name": "NoRewards",
      "type": "error"
    },
    {
      "inputs": [],
      "name": "SBT",
      "type": "error"
    },
    {
      "anonymous": false,
      "inputs": [
        {
          "indexed": false,
          "internalType": "address",
          "name": "previousAdmin",
          "type": "address"
        },
        {
          "indexed": false,
          "internalType": "address",
          "name": "newAdmin",
          "type": "address"
        }
      ],
      "name": "AdminChanged",
      "type": "event"
    },
    {
      "anonymous": false,
      "inputs": [
        {
          "indexed": true,
          "internalType": "address",
          "name": "account",
          "type": "address"
        },
        {
          "indexed": true,
          "internalType": "address",
          "name": "operator",
          "type": "address"
        },
        {
          "indexed": false,
          "internalType": "bool",
          "name": "approved",
          "type": "bool"
        }
      ],
      "name": "ApprovalForAll",
      "type": "event"
    },
    {
      "anonymous": false,
      "inputs": [
        {
          "indexed": true,
          "internalType": "address",
          "name": "beacon",
          "type": "address"
        }
      ],
      "name": "BeaconUpgraded",
      "type": "event"
    },
    {
      "anonymous": false,
      "inputs": [
        {
          "indexed": false,
          "internalType": "uint8",
          "name": "version",
          "type": "uint8"
        }
      ],
      "name": "Initialized",
      "type": "event"
    },
    {
      "anonymous": false,
      "inputs": [
        {
          "indexed": false,
          "internalType": "address[]",
          "name": "addrs",
          "type": "address[]"
        },
        {
          "indexed": false,
          "internalType": "uint256[]",
          "name": "ids",
          "type": "uint256[]"
        }
      ],
      "name": "NewRewards",
      "type": "event"
    },
    {
      "anonymous": false,
      "inputs": [
        {
          "indexed": true,
          "internalType": "bytes32",
          "name": "role",
          "type": "bytes32"
        },
        {
          "indexed": true,
          "internalType": "bytes32",
          "name": "previousAdminRole",
          "type": "bytes32"
        },
        {
          "indexed": true,
          "internalType": "bytes32",
          "name": "newAdminRole",
          "type": "bytes32"
        }
      ],
      "name": "RoleAdminChanged",
      "type": "event"
    },
    {
      "anonymous": false,
      "inputs": [
        {
          "indexed": true,
          "internalType": "bytes32",
          "name": "role",
          "type": "bytes32"
        },
        {
          "indexed": true,
          "internalType": "address",
          "name": "account",
          "type": "address"
        },
        {
          "indexed": true,
          "internalType": "address",
          "name": "sender",
          "type": "address"
        }
      ],
      "name": "RoleGranted",
      "type": "event"
    },
    {
      "anonymous": false,
      "inputs": [
        {
          "indexed": true,
          "internalType": "bytes32",
          "name": "role",
          "type": "bytes32"
        },
        {
          "indexed": true,
          "internalType": "address",
          "name": "account",
          "type": "address"
        },
        {
          "indexed": true,
          "internalType": "address",
          "name": "sender",
          "type": "address"
        }
      ],
      "name": "RoleRevoked",
      "type": "event"
    },
    {
      "anonymous": false,
      "inputs": [
        {
          "indexed": true,
          "internalType": "address",
          "name": "operator",
          "type": "address"
        },
        {
          "indexed": true,
          "internalType": "address",
          "name": "from",
          "type": "address"
        },
        {
          "indexed": true,
          "internalType": "address",
          "name": "to",
          "type": "address"
        },
        {
          "indexed": false,
          "internalType": "uint256[]",
          "name": "ids",
          "type": "uint256[]"
        },
        {
          "indexed": false,
          "internalType": "uint256[]",
          "name": "values",
          "type": "uint256[]"
        }
      ],
      "name": "TransferBatch",
      "type": "event"
    },
    {
      "anonymous": false,
      "inputs": [
        {
          "indexed": true,
          "internalType": "address",
          "name": "operator",
          "type": "address"
        },
        {
          "indexed": true,
          "internalType": "address",
          "name": "from",
          "type": "address"
        },
        {
          "indexed": true,
          "internalType": "address",
          "name": "to",
          "type": "address"
        },
        {
          "indexed": false,
          "internalType": "uint256",
          "name": "id",
          "type": "uint256"
        },
        {
          "indexed": false,
          "internalType": "uint256",
          "name": "value",
          "type": "uint256"
        }
      ],
      "name": "TransferSingle",
      "type": "event"
    },
    {
      "anonymous": false,
      "inputs": [
        {
          "indexed": false,
          "internalType": "string",
          "name": "value",
          "type": "string"
        },
        {
          "indexed": true,
          "internalType": "uint256",
          "name": "id",
          "type": "uint256"
        }
      ],
      "name": "URI",
      "type": "event"
    },
    {
      "anonymous": false,
      "inputs": [
        {
          "indexed": true,
          "internalType": "address",
          "name": "implementation",
          "type": "address"
        }
      ],
      "name": "Upgraded",
      "type": "event"
    },
    {
      "inputs": [],
      "name": "DEFAULT_ADMIN_ROLE",
      "outputs": [
        {
          "internalType": "bytes32",
          "name": "",
          "type": "bytes32"
        }
      ],
      "stateMutability": "view",
      "type": "function"
    },
    {
      "inputs": [],
      "name": "GRANTER_ROLE",
      "outputs": [
        {
          "internalType": "bytes32",
          "name": "",
          "type": "bytes32"
        }
      ],
      "stateMutability": "view",
      "type": "function"
    },
    {
      "inputs": [
        {
          "internalType": "address",
          "name": "account",
          "type": "address"
        },
        {
          "internalType": "uint256",
          "name": "id",
          "type": "uint256"
        }
      ],
      "name": "balanceOf",
      "outputs": [
        {
          "internalType": "uint256",
          "name": "",
          "type": "uint256"
        }
      ],
      "stateMutability": "view",
      "type": "function"
    },
    {
      "inputs": [
        {
          "internalType": "address[]",
          "name": "accounts",
          "type": "address[]"
        },
        {
          "internalType": "uint256[]",
          "name": "ids",
          "type": "uint256[]"
        }
      ],
      "name": "balanceOfBatch",
      "outputs": [
        {
          "internalType": "uint256[]",
          "name": "",
          "type": "uint256[]"
        }
      ],
      "stateMutability": "view",
      "type": "function"
    },
    {
      "inputs": [
        {
          "internalType": "uint256",
          "name": "id",
          "type": "uint256"
        }
      ],
      "name": "exists",
      "outputs": [
        {
          "internalType": "bool",
          "name": "",
          "type": "bool"
        }
      ],
      "stateMutability": "view",
      "type": "function"
    },
    {
      "inputs": [
        {
          "internalType": "bytes32",
          "name": "role",
          "type": "bytes32"
        }
      ],
      "name": "getRoleAdmin",
      "outputs": [
        {
          "internalType": "bytes32",
          "name": "",
          "type": "bytes32"
        }
      ],
      "stateMutability": "view",
      "type": "function"
    },
    {
      "inputs": [
        {
          "internalType": "address[]",
          "name": "addrs",
          "type": "address[]"
        },
        {
          "internalType": "uint256[]",
          "name": "ids",
          "type": "uint256[]"
        }
      ],
      "name": "grantRewards",
      "outputs": [],
      "stateMutability": "nonpayable",
      "type": "function"
    },
    {
      "inputs": [
        {
          "internalType": "bytes32",
          "name": "role",
          "type": "bytes32"
        },
        {
          "internalType": "address",
          "name": "account",
          "type": "address"
        }
      ],
      "name": "grantRole",
      "outputs": [],
      "stateMutability": "nonpayable",
      "type": "function"
    },
    {
      "inputs": [
        {
          "internalType": "bytes32",
          "name": "role",
          "type": "bytes32"
        },
        {
          "internalType": "address",
          "name": "account",
          "type": "address"
        }
      ],
      "name": "hasRole",
      "outputs": [
        {
          "internalType": "bool",
          "name": "",
          "type": "bool"
        }
      ],
      "stateMutability": "view",
      "type": "function"
    },
    {
      "inputs": [],
      "name": "initialize",
      "outputs": [],
      "stateMutability": "nonpayable",
      "type": "function"
    },
    {
      "inputs": [
        {
          "internalType": "address",
          "name": "account",
          "type": "address"
        },
        {
          "internalType": "address",
          "name": "operator",
          "type": "address"
        }
      ],
      "name": "isApprovedForAll",
      "outputs": [
        {
          "internalType": "bool",
          "name": "",
          "type": "bool"
        }
      ],
      "stateMutability": "view",
      "type": "function"
    },
    {
      "inputs": [
        {
          "internalType": "address",
          "name": "forwarder",
          "type": "address"
        }
      ],
      "name": "isTrustedForwarder",
      "outputs": [
        {
          "internalType": "bool",
          "name": "",
          "type": "bool"
        }
      ],
      "stateMutability": "view",
      "type": "function"
    },
    {
      "inputs": [
        {
          "internalType": "address",
          "name": "receiver",
          "type": "address"
        }
      ],
      "name": "mint",
      "outputs": [],
      "stateMutability": "nonpayable",
      "type": "function"
    },
    {
      "inputs": [],
      "name": "name",
      "outputs": [
        {
          "internalType": "string",
          "name": "",
          "type": "string"
        }
      ],
      "stateMutability": "view",
      "type": "function"
    },
    {
      "inputs": [],
      "name": "proxiableUUID",
      "outputs": [
        {
          "internalType": "bytes32",
          "name": "",
          "type": "bytes32"
        }
      ],
      "stateMutability": "view",
      "type": "function"
    },
    {
      "inputs": [
        {
          "internalType": "bytes32",
          "name": "role",
          "type": "bytes32"
        },
        {
          "internalType": "address",
          "name": "account",
          "type": "address"
        }
      ],
      "name": "renounceRole",
      "outputs": [],
      "stateMutability": "nonpayable",
      "type": "function"
    },
    {
      "inputs": [
        {
          "internalType": "bytes32",
          "name": "role",
          "type": "bytes32"
        },
        {
          "internalType": "address",
          "name": "account",
          "type": "address"
        }
      ],
      "name": "revokeRole",
      "outputs": [],
      "stateMutability": "nonpayable",
      "type": "function"
    },
    {
      "inputs": [
        {
          "internalType": "address",
          "name": "from",
          "type": "address"
        },
        {
          "internalType": "address",
          "name": "to",
          "type": "address"
        },
        {
          "internalType": "uint256[]",
          "name": "ids",
          "type": "uint256[]"
        },
        {
          "internalType": "uint256[]",
          "name": "amounts",
          "type": "uint256[]"
        },
        {
          "internalType": "bytes",
          "name": "data",
          "type": "bytes"
        }
      ],
      "name": "safeBatchTransferFrom",
      "outputs": [],
      "stateMutability": "nonpayable",
      "type": "function"
    },
    {
      "inputs": [
        {
          "internalType": "address",
          "name": "from",
          "type": "address"
        },
        {
          "internalType": "address",
          "name": "to",
          "type": "address"
        },
        {
          "internalType": "uint256",
          "name": "id",
          "type": "uint256"
        },
        {
          "internalType": "uint256",
          "name": "amount",
          "type": "uint256"
        },
        {
          "internalType": "bytes",
          "name": "data",
          "type": "bytes"
        }
      ],
      "name": "safeTransferFrom",
      "outputs": [],
      "stateMutability": "nonpayable",
      "type": "function"
    },
    {
      "inputs": [
        {
          "internalType": "address",
          "name": "operator",
          "type": "address"
        },
        {
          "internalType": "bool",
          "name": "approved",
          "type": "bool"
        }
      ],
      "name": "setApprovalForAll",
      "outputs": [],
      "stateMutability": "nonpayable",
      "type": "function"
    },
    {
      "inputs": [
        {
          "internalType": "address",
          "name": "trustedForwarder",
          "type": "address"
        }
      ],
      "name": "setForwarder",
      "outputs": [],
      "stateMutability": "nonpayable",
      "type": "function"
    },
    {
      "inputs": [
        {
          "internalType": "string",
          "name": "newuri",
          "type": "string"
        }
      ],
      "name": "setURI",
      "outputs": [],
      "stateMutability": "nonpayable",
      "type": "function"
    },
    {
      "inputs": [
        {
          "internalType": "bytes4",
          "name": "interfaceId",
          "type": "bytes4"
        }
      ],
      "name": "supportsInterface",
      "outputs": [
        {
          "internalType": "bool",
          "name": "",
          "type": "bool"
        }
      ],
      "stateMutability": "view",
      "type": "function"
    },
    {
      "inputs": [],
      "name": "symbol",
      "outputs": [
        {
          "internalType": "string",
          "name": "",
          "type": "string"
        }
      ],
      "stateMutability": "view",
      "type": "function"
    },
    {
      "inputs": [
        {
          "internalType": "uint256",
          "name": "id",
          "type": "uint256"
        }
      ],
      "name": "totalSupply",
      "outputs": [
        {
          "internalType": "uint256",
          "name": "",
          "type": "uint256"
        }
      ],
      "stateMutability": "view",
      "type": "function"
    },
    {
      "inputs": [
        {
          "internalType": "address",
          "name": "newImplementation",
          "type": "address"
        }
      ],
      "name": "upgradeTo",
      "outputs": [],
      "stateMutability": "nonpayable",
      "type": "function"
    },
    {
      "inputs": [
        {
          "internalType": "address",
          "name": "newImplementation",
          "type": "address"
        },
        {
          "internalType": "bytes",
          "name": "data",
          "type": "bytes"
        }
      ],
      "name": "upgradeToAndCall",
      "outputs": [],
      "stateMutability": "payable",
      "type": "function"
    },
    {
      "inputs": [
        {
          "internalType": "uint256",
          "name": "id",
          "type": "uint256"
        }
      ],
      "name": "uri",
      "outputs": [
        {
          "internalType": "string",
          "name": "",
          "type": "string"
        }
      ],
      "stateMutability": "view",
      "type": "function"
    }
  ],
  "bytecode": "0x60a0604052306080523480156200001557600080fd5b506200002062000026565b620000e8565b600054610100900460ff1615620000935760405162461bcd60e51b815260206004820152602760248201527f496e697469616c697a61626c653a20636f6e747261637420697320696e697469604482015266616c697a696e6760c81b606482015260840160405180910390fd5b60005460ff9081161015620000e6576000805460ff191660ff9081179091556040519081527f7f26b83ff96e1f2b6a682f133852f6798a09c465da95921460cefb38474024989060200160405180910390a15b565b6080516141b96200012060003960008181610a0801528181610ab801528181610eb201528181610f6201526110a701526141b96000f3fe6080604052600436106101b65760003560e01c806352d1902d116100ec578063a22cb4651161008a578063d547741f11610064578063d547741f1461059a578063e985e9c5146105ba578063f242432a14610610578063f94c0a111461063057600080fd5b8063a22cb4651461052d578063b9998a241461054d578063bd85b0391461056d57600080fd5b80638129fc1c116100c65780638129fc1c1461046757806391d148541461047c57806395d89b41146104cf578063a217fddf1461051857600080fd5b806352d1902d146103f5578063572b6c051461040a5780636a6278421461044757600080fd5b80632f2ff15d116101595780634c64d212116101335780634c64d212146103665780634e1273f4146103865780634f1ef286146103b35780634f558e79146103c657600080fd5b80632f2ff15d1461030657806336568abe146103265780633659cfe61461034657600080fd5b806306fdde031161019557806306fdde03146102405780630e89341c14610296578063248a9ca3146102b65780632eb2c2d6146102e657600080fd5b8062fdd58e146101bb57806301ffc9a7146101ee57806302fe53051461021e575b600080fd5b3480156101c757600080fd5b506101db6101d6366004613673565b610664565b6040519081526020015b60405180910390f35b3480156101fa57600080fd5b5061020e6102093660046136cb565b610743565b60405190151581526020016101e5565b34801561022a57600080fd5b5061023e6102393660046137de565b610754565b005b34801561024c57600080fd5b506102896040518060400160405280600c81526020017f48616c6c206f662046616d65000000000000000000000000000000000000000081525081565b6040516101e591906138a5565b3480156102a257600080fd5b506102896102b13660046138b8565b61078b565b3480156102c257600080fd5b506101db6102d13660046138b8565b600090815260c9602052604090206001015490565b3480156102f257600080fd5b5061023e610301366004613986565b610812565b34801561031257600080fd5b5061023e610321366004613a30565b6108fa565b34801561033257600080fd5b5061023e610341366004613a30565b610924565b34801561035257600080fd5b5061023e610361366004613a5c565b6109f0565b34801561037257600080fd5b5061023e610381366004613a77565b610bf6565b34801561039257600080fd5b506103a66103a1366004613a77565b610d42565b6040516101e59190613b7d565b61023e6103c1366004613b90565b610e9a565b3480156103d257600080fd5b5061020e6103e13660046138b8565b600090815260976020526040902054151590565b34801561040157600080fd5b506101db61108d565b34801561041657600080fd5b5061020e610425366004613a5c565b61015f5473ffffffffffffffffffffffffffffffffffffffff91821691161490565b34801561045357600080fd5b5061023e610462366004613a5c565b61117a565b34801561047357600080fd5b5061023e6112d4565b34801561048857600080fd5b5061020e610497366004613a30565b600091825260c96020908152604080842073ffffffffffffffffffffffffffffffffffffffff93909316845291905290205460ff1690565b3480156104db57600080fd5b506102896040518060400160405280600381526020017f486f46000000000000000000000000000000000000000000000000000000000081525081565b34801561052457600080fd5b506101db600081565b34801561053957600080fd5b5061023e610548366004613bd4565b6114cb565b34801561055957600080fd5b5061023e610568366004613a5c565b6114dd565b34801561057957600080fd5b506101db6105883660046138b8565b60009081526097602052604090205490565b3480156105a657600080fd5b5061023e6105b5366004613a30565b611550565b3480156105c657600080fd5b5061020e6105d5366004613c10565b73ffffffffffffffffffffffffffffffffffffffff918216600090815260666020908152604080832093909416825291909152205460ff1690565b34801561061c57600080fd5b5061023e61062b366004613c3a565b611575565b34801561063c57600080fd5b506101db7f2dee5dd865e09c7ce6788d674a03682994f0b44339403ca07ac129a9de4bed6a81565b600073ffffffffffffffffffffffffffffffffffffffff831661070e576040517f08c379a000000000000000000000000000000000000000000000000000000000815260206004820152602a60248201527f455243313135353a2061646472657373207a65726f206973206e6f742061207660448201527f616c6964206f776e65720000000000000000000000000000000000000000000060648201526084015b60405180910390fd5b50600090815260656020908152604080832073ffffffffffffffffffffffffffffffffffffffff949094168352929052205490565b600061074e82611656565b92915050565b7f2dee5dd865e09c7ce6788d674a03682994f0b44339403ca07ac129a9de4bed6a61077e816116ac565b610787826116bd565b5050565b6000818152609760205260409020546060906107d3576040517f80375d5a00000000000000000000000000000000000000000000000000000000815260040160405180910390fd5b60006107de836116d0565b9050806107ea84611764565b6040516020016107fb929190613c9f565b604051602081830303815290604052915050919050565b61081a611824565b73ffffffffffffffffffffffffffffffffffffffff168573ffffffffffffffffffffffffffffffffffffffff16148061085a575061085a856105d5611824565b6108e6576040517f08c379a000000000000000000000000000000000000000000000000000000000815260206004820152602e60248201527f455243313135353a2063616c6c6572206973206e6f7420746f6b656e206f776e60448201527f6572206f7220617070726f7665640000000000000000000000000000000000006064820152608401610705565b6108f38585858585611878565b5050505050565b600082815260c96020526040902060010154610915816116ac565b61091f8383611bce565b505050565b61092c611824565b73ffffffffffffffffffffffffffffffffffffffff168173ffffffffffffffffffffffffffffffffffffffff16146109e6576040517f08c379a000000000000000000000000000000000000000000000000000000000815260206004820152602f60248201527f416363657373436f6e74726f6c3a2063616e206f6e6c792072656e6f756e636560448201527f20726f6c657320666f722073656c6600000000000000000000000000000000006064820152608401610705565b6107878282611cc3565b3073ffffffffffffffffffffffffffffffffffffffff7f0000000000000000000000000000000000000000000000000000000000000000161415610ab6576040517f08c379a000000000000000000000000000000000000000000000000000000000815260206004820152602c60248201527f46756e6374696f6e206d7573742062652063616c6c6564207468726f7567682060448201527f64656c656761746563616c6c00000000000000000000000000000000000000006064820152608401610705565b7f000000000000000000000000000000000000000000000000000000000000000073ffffffffffffffffffffffffffffffffffffffff16610b2b7f360894a13ba1a3210667c828492db98dca3e2076cc3735a920a3ca505d382bbc5473ffffffffffffffffffffffffffffffffffffffff1690565b73ffffffffffffffffffffffffffffffffffffffff1614610bce576040517f08c379a000000000000000000000000000000000000000000000000000000000815260206004820152602c60248201527f46756e6374696f6e206d7573742062652063616c6c6564207468726f7567682060448201527f6163746976652070726f787900000000000000000000000000000000000000006064820152608401610705565b610bd781611db6565b60408051600080825260208201909252610bf391839190611dc1565b50565b7f2dee5dd865e09c7ce6788d674a03682994f0b44339403ca07ac129a9de4bed6a610c20816116ac565b8151835114610c5b576040517fce33775800000000000000000000000000000000000000000000000000000000815260040160405180910390fd5b60005b8351811015610d03576101606000858381518110610c7e57610c7e613cce565b602002602001015173ffffffffffffffffffffffffffffffffffffffff1673ffffffffffffffffffffffffffffffffffffffff168152602001908152602001600020838281518110610cd257610cd2613cce565b6020908102919091018101518254600181018455600093845291909220015580610cfb81613d2c565b915050610c5e565b507f2b9d7dc98db22d9a1f8c9f1d667ca3e351147bfe237c9af60325b108d88f09e48383604051610d35929190613d65565b60405180910390a1505050565b60608151835114610dd5576040517f08c379a000000000000000000000000000000000000000000000000000000000815260206004820152602960248201527f455243313135353a206163636f756e747320616e6420696473206c656e67746860448201527f206d69736d6174636800000000000000000000000000000000000000000000006064820152608401610705565b6000835167ffffffffffffffff811115610df157610df16136e8565b604051908082528060200260200182016040528015610e1a578160200160208202803683370190505b50905060005b8451811015610e9257610e65858281518110610e3e57610e3e613cce565b6020026020010151858381518110610e5857610e58613cce565b6020026020010151610664565b828281518110610e7757610e77613cce565b6020908102919091010152610e8b81613d2c565b9050610e20565b509392505050565b3073ffffffffffffffffffffffffffffffffffffffff7f0000000000000000000000000000000000000000000000000000000000000000161415610f60576040517f08c379a000000000000000000000000000000000000000000000000000000000815260206004820152602c60248201527f46756e6374696f6e206d7573742062652063616c6c6564207468726f7567682060448201527f64656c656761746563616c6c00000000000000000000000000000000000000006064820152608401610705565b7f000000000000000000000000000000000000000000000000000000000000000073ffffffffffffffffffffffffffffffffffffffff16610fd57f360894a13ba1a3210667c828492db98dca3e2076cc3735a920a3ca505d382bbc5473ffffffffffffffffffffffffffffffffffffffff1690565b73ffffffffffffffffffffffffffffffffffffffff1614611078576040517f08c379a000000000000000000000000000000000000000000000000000000000815260206004820152602c60248201527f46756e6374696f6e206d7573742062652063616c6c6564207468726f7567682060448201527f6163746976652070726f787900000000000000000000000000000000000000006064820152608401610705565b61108182611db6565b61078782826001611dc1565b60003073ffffffffffffffffffffffffffffffffffffffff7f00000000000000000000000000000000000000000000000000000000000000001614611154576040517f08c379a000000000000000000000000000000000000000000000000000000000815260206004820152603860248201527f555550535570677261646561626c653a206d757374206e6f742062652063616c60448201527f6c6564207468726f7567682064656c656761746563616c6c00000000000000006064820152608401610705565b507f360894a13ba1a3210667c828492db98dca3e2076cc3735a920a3ca505d382bbc5b90565b73ffffffffffffffffffffffffffffffffffffffff8116600090815261016060209081526040808320805482518185028101850190935280835291929091908301828280156111e857602002820191906000526020600020905b8154815260200190600101908083116111d4575b5050505050905080516000141561122b576040517f3fb087f400000000000000000000000000000000000000000000000000000000815260040160405180910390fd5b60005b81518110156112a4576112928383838151811061124d5761124d613cce565b602002602001015160016040518060400160405280600281526020017f3078000000000000000000000000000000000000000000000000000000000000815250611fcf565b8061129c81613d2c565b91505061122e565b5073ffffffffffffffffffffffffffffffffffffffff821660009081526101606020526040812061078791613593565b600054610100900460ff16158080156112f45750600054600160ff909116105b8061130e5750303b15801561130e575060005460ff166001145b61139a576040517f08c379a000000000000000000000000000000000000000000000000000000000815260206004820152602e60248201527f496e697469616c697a61626c653a20636f6e747261637420697320616c72656160448201527f647920696e697469616c697a65640000000000000000000000000000000000006064820152608401610705565b600080547fffffffffffffffffffffffffffffffffffffffffffffffffffffffffffffff0016600117905580156113f857600080547fffffffffffffffffffffffffffffffffffffffffffffffffffffffffffff00ff166101001790555b6114196040518060600160405280603681526020016141276036913961215c565b6114216121fc565b6114296121fc565b6114316121fc565b61143c600033611bce565b6114667f2dee5dd865e09c7ce6788d674a03682994f0b44339403ca07ac129a9de4bed6a33611bce565b8015610bf357600080547fffffffffffffffffffffffffffffffffffffffffffffffffffffffffffff00ff169055604051600181527f7f26b83ff96e1f2b6a682f133852f6798a09c465da95921460cefb38474024989060200160405180910390a150565b6107876114d6611824565b8383612295565b7f2dee5dd865e09c7ce6788d674a03682994f0b44339403ca07ac129a9de4bed6a611507816116ac565b5061015f80547fffffffffffffffffffffffff00000000000000000000000000000000000000001673ffffffffffffffffffffffffffffffffffffffff92909216919091179055565b600082815260c9602052604090206001015461156b816116ac565b61091f8383611cc3565b61157d611824565b73ffffffffffffffffffffffffffffffffffffffff168573ffffffffffffffffffffffffffffffffffffffff1614806115bd57506115bd856105d5611824565b611649576040517f08c379a000000000000000000000000000000000000000000000000000000000815260206004820152602e60248201527f455243313135353a2063616c6c6572206973206e6f7420746f6b656e206f776e60448201527f6572206f7220617070726f7665640000000000000000000000000000000000006064820152608401610705565b6108f385858585856123e9565b60007fffffffff0000000000000000000000000000000000000000000000000000000082167f7965db0b00000000000000000000000000000000000000000000000000000000148061074e575061074e82612644565b610bf3816116b8611824565b612727565b80516107879060679060208401906135b1565b6060606780546116df90613dd2565b80601f016020809104026020016040519081016040528092919081815260200182805461170b90613dd2565b80156117585780601f1061172d57610100808354040283529160200191611758565b820191906000526020600020905b81548152906001019060200180831161173b57829003601f168201915b50505050509050919050565b60606000611771836127e1565b600101905060008167ffffffffffffffff811115611791576117916136e8565b6040519080825280601f01601f1916602001820160405280156117bb576020820181803683370190505b5090508181016020015b7fffffffffffffffffffffffffffffffffffffffffffffffffffffffffffffffff017f3031323334353637383961626364656600000000000000000000000000000000600a86061a8153600a850494508461181f57610e92565b6117c5565b61015f5460009073ffffffffffffffffffffffffffffffffffffffff1633141561187357507fffffffffffffffffffffffffffffffffffffffffffffffffffffffffffffffec36013560601c90565b503390565b8151835114611909576040517f08c379a000000000000000000000000000000000000000000000000000000000815260206004820152602860248201527f455243313135353a2069647320616e6420616d6f756e7473206c656e6774682060448201527f6d69736d617463680000000000000000000000000000000000000000000000006064820152608401610705565b73ffffffffffffffffffffffffffffffffffffffff84166119ac576040517f08c379a000000000000000000000000000000000000000000000000000000000815260206004820152602560248201527f455243313135353a207472616e7366657220746f20746865207a65726f20616460448201527f64726573730000000000000000000000000000000000000000000000000000006064820152608401610705565b60006119b6611824565b90506119c68187878787876128c3565b60005b8451811015611b395760008582815181106119e6576119e6613cce565b602002602001015190506000858381518110611a0457611a04613cce565b602090810291909101810151600084815260658352604080822073ffffffffffffffffffffffffffffffffffffffff8e168352909352919091205490915081811015611ad2576040517f08c379a000000000000000000000000000000000000000000000000000000000815260206004820152602a60248201527f455243313135353a20696e73756666696369656e742062616c616e636520666f60448201527f72207472616e73666572000000000000000000000000000000000000000000006064820152608401610705565b600083815260656020908152604080832073ffffffffffffffffffffffffffffffffffffffff8e8116855292528083208585039055908b16825281208054849290611b1e908490613e26565b9250508190555050505080611b3290613d2c565b90506119c9565b508473ffffffffffffffffffffffffffffffffffffffff168673ffffffffffffffffffffffffffffffffffffffff168273ffffffffffffffffffffffffffffffffffffffff167f4a39dc06d4c0dbc64b70af90fd698a233a518aa5d07e595d983b8c0526c8f7fb8787604051611bb0929190613e3e565b60405180910390a4611bc6818787878787612942565b505050505050565b600082815260c96020908152604080832073ffffffffffffffffffffffffffffffffffffffff8516845290915290205460ff1661078757600082815260c96020908152604080832073ffffffffffffffffffffffffffffffffffffffff85168452909152902080547fffffffffffffffffffffffffffffffffffffffffffffffffffffffffffffff00166001179055611c65611824565b73ffffffffffffffffffffffffffffffffffffffff168173ffffffffffffffffffffffffffffffffffffffff16837f2f8788117e7eff1d82e926ec794901d17c78024a50270940304540a733656f0d60405160405180910390a45050565b600082815260c96020908152604080832073ffffffffffffffffffffffffffffffffffffffff8516845290915290205460ff161561078757600082815260c96020908152604080832073ffffffffffffffffffffffffffffffffffffffff85168452909152902080547fffffffffffffffffffffffffffffffffffffffffffffffffffffffffffffff00169055611d58611824565b73ffffffffffffffffffffffffffffffffffffffff168173ffffffffffffffffffffffffffffffffffffffff16837ff6391f5c32d9c69d2a47ea670b442974b53935d1edc7fd64eb21e047a839171b60405160405180910390a45050565b6000610787816116ac565b7f4910fdfa16fed3260ed0e7147f7cc6da11a60208b5b9406d12a635614ffd91435460ff1615611df45761091f83612bdc565b8273ffffffffffffffffffffffffffffffffffffffff166352d1902d6040518163ffffffff1660e01b815260040160206040518083038186803b158015611e3a57600080fd5b505afa925050508015611e88575060408051601f3d9081017fffffffffffffffffffffffffffffffffffffffffffffffffffffffffffffffe0168201909252611e8591810190613e63565b60015b611f14576040517f08c379a000000000000000000000000000000000000000000000000000000000815260206004820152602e60248201527f45524331393637557067726164653a206e657720696d706c656d656e7461746960448201527f6f6e206973206e6f7420555550530000000000000000000000000000000000006064820152608401610705565b7f360894a13ba1a3210667c828492db98dca3e2076cc3735a920a3ca505d382bbc8114611fc3576040517f08c379a000000000000000000000000000000000000000000000000000000000815260206004820152602960248201527f45524331393637557067726164653a20756e737570706f727465642070726f7860448201527f6961626c655555494400000000000000000000000000000000000000000000006064820152608401610705565b5061091f838383612ce6565b73ffffffffffffffffffffffffffffffffffffffff8416612072576040517f08c379a000000000000000000000000000000000000000000000000000000000815260206004820152602160248201527f455243313135353a206d696e7420746f20746865207a65726f2061646472657360448201527f73000000000000000000000000000000000000000000000000000000000000006064820152608401610705565b600061207c611824565b9050600061208985612d11565b9050600061209685612d11565b90506120a7836000898585896128c3565b600086815260656020908152604080832073ffffffffffffffffffffffffffffffffffffffff8b168452909152812080548792906120e6908490613e26565b9091555050604080518781526020810187905273ffffffffffffffffffffffffffffffffffffffff808a1692600092918716917fc3d58168c5ae7397731d063d5bbf3d657854427343f4c083240f7aacaa2d0f62910160405180910390a461215383600089898989612d5c565b50505050505050565b600054610100900460ff166121f3576040517f08c379a000000000000000000000000000000000000000000000000000000000815260206004820152602b60248201527f496e697469616c697a61626c653a20636f6e7472616374206973206e6f74206960448201527f6e697469616c697a696e670000000000000000000000000000000000000000006064820152608401610705565b610bf381612f18565b600054610100900460ff16612293576040517f08c379a000000000000000000000000000000000000000000000000000000000815260206004820152602b60248201527f496e697469616c697a61626c653a20636f6e7472616374206973206e6f74206960448201527f6e697469616c697a696e670000000000000000000000000000000000000000006064820152608401610705565b565b8173ffffffffffffffffffffffffffffffffffffffff168373ffffffffffffffffffffffffffffffffffffffff161415612351576040517f08c379a000000000000000000000000000000000000000000000000000000000815260206004820152602960248201527f455243313135353a2073657474696e6720617070726f76616c2073746174757360448201527f20666f722073656c6600000000000000000000000000000000000000000000006064820152608401610705565b73ffffffffffffffffffffffffffffffffffffffff83811660008181526066602090815260408083209487168084529482529182902080547fffffffffffffffffffffffffffffffffffffffffffffffffffffffffffffff001686151590811790915591519182527f17307eab39ab6107e8899845ad3d59bd9653f200f220920489ca2b5937696c31910160405180910390a3505050565b73ffffffffffffffffffffffffffffffffffffffff841661248c576040517f08c379a000000000000000000000000000000000000000000000000000000000815260206004820152602560248201527f455243313135353a207472616e7366657220746f20746865207a65726f20616460448201527f64726573730000000000000000000000000000000000000000000000000000006064820152608401610705565b6000612496611824565b905060006124a385612d11565b905060006124b085612d11565b90506124c08389898585896128c3565b600086815260656020908152604080832073ffffffffffffffffffffffffffffffffffffffff8c16845290915290205485811015612580576040517f08c379a000000000000000000000000000000000000000000000000000000000815260206004820152602a60248201527f455243313135353a20696e73756666696369656e742062616c616e636520666f60448201527f72207472616e73666572000000000000000000000000000000000000000000006064820152608401610705565b600087815260656020908152604080832073ffffffffffffffffffffffffffffffffffffffff8d8116855292528083208985039055908a168252812080548892906125cc908490613e26565b9091555050604080518881526020810188905273ffffffffffffffffffffffffffffffffffffffff808b16928c821692918816917fc3d58168c5ae7397731d063d5bbf3d657854427343f4c083240f7aacaa2d0f62910160405180910390a4612639848a8a8a8a8a612d5c565b505050505050505050565b60007fffffffff0000000000000000000000000000000000000000000000000000000082167fd9b67a260000000000000000000000000000000000000000000000000000000014806126d757507fffffffff0000000000000000000000000000000000000000000000000000000082167f0e89341c00000000000000000000000000000000000000000000000000000000145b8061074e57507f01ffc9a7000000000000000000000000000000000000000000000000000000007fffffffff0000000000000000000000000000000000000000000000000000000083161461074e565b600082815260c96020908152604080832073ffffffffffffffffffffffffffffffffffffffff8516845290915290205460ff166107875761276781612fb8565b612772836020612fd7565b604051602001612783929190613e7c565b604080517fffffffffffffffffffffffffffffffffffffffffffffffffffffffffffffffe0818403018152908290527f08c379a0000000000000000000000000000000000000000000000000000000008252610705916004016138a5565b6000807a184f03e93ff9f4daa797ed6e38ed64bf6a1f010000000000000000831061282a577a184f03e93ff9f4daa797ed6e38ed64bf6a1f010000000000000000830492506040015b6d04ee2d6d415b85acef81000000008310612856576d04ee2d6d415b85acef8100000000830492506020015b662386f26fc10000831061287457662386f26fc10000830492506010015b6305f5e100831061288c576305f5e100830492506008015b61271083106128a057612710830492506004015b606483106128b2576064830492506002015b600a831061074e5760010192915050565b6128d1868686868686613221565b73ffffffffffffffffffffffffffffffffffffffff85161580159061290b575073ffffffffffffffffffffffffffffffffffffffff841615155b15611bc6576040517fa323a74800000000000000000000000000000000000000000000000000000000815260040160405180910390fd5b73ffffffffffffffffffffffffffffffffffffffff84163b15611bc6576040517fbc197c8100000000000000000000000000000000000000000000000000000000815273ffffffffffffffffffffffffffffffffffffffff85169063bc197c81906129b99089908990889088908890600401613efd565b602060405180830381600087803b1580156129d357600080fd5b505af1925050508015612a21575060408051601f3d9081017fffffffffffffffffffffffffffffffffffffffffffffffffffffffffffffffe0168201909252612a1e91810190613f68565b60015b612b0b57612a2d613f85565b806308c379a01415612a815750612a42613fa0565b80612a4d5750612a83565b806040517f08c379a000000000000000000000000000000000000000000000000000000000815260040161070591906138a5565b505b6040517f08c379a000000000000000000000000000000000000000000000000000000000815260206004820152603460248201527f455243313135353a207472616e7366657220746f206e6f6e2d4552433131353560448201527f526563656976657220696d706c656d656e7465720000000000000000000000006064820152608401610705565b7fffffffff0000000000000000000000000000000000000000000000000000000081167fbc197c810000000000000000000000000000000000000000000000000000000014612153576040517f08c379a000000000000000000000000000000000000000000000000000000000815260206004820152602860248201527f455243313135353a204552433131353552656365697665722072656a6563746560448201527f6420746f6b656e730000000000000000000000000000000000000000000000006064820152608401610705565b73ffffffffffffffffffffffffffffffffffffffff81163b612c80576040517f08c379a000000000000000000000000000000000000000000000000000000000815260206004820152602d60248201527f455243313936373a206e657720696d706c656d656e746174696f6e206973206e60448201527f6f74206120636f6e7472616374000000000000000000000000000000000000006064820152608401610705565b7f360894a13ba1a3210667c828492db98dca3e2076cc3735a920a3ca505d382bbc80547fffffffffffffffffffffffff00000000000000000000000000000000000000001673ffffffffffffffffffffffffffffffffffffffff92909216919091179055565b612cef836133e3565b600082511180612cfc5750805b1561091f57612d0b8383613430565b50505050565b60408051600180825281830190925260609160009190602080830190803683370190505090508281600081518110612d4b57612d4b613cce565b602090810291909101015292915050565b73ffffffffffffffffffffffffffffffffffffffff84163b15611bc6576040517ff23a6e6100000000000000000000000000000000000000000000000000000000815273ffffffffffffffffffffffffffffffffffffffff85169063f23a6e6190612dd39089908990889088908890600401614048565b602060405180830381600087803b158015612ded57600080fd5b505af1925050508015612e3b575060408051601f3d9081017fffffffffffffffffffffffffffffffffffffffffffffffffffffffffffffffe0168201909252612e3891810190613f68565b60015b612e4757612a2d613f85565b7fffffffff0000000000000000000000000000000000000000000000000000000081167ff23a6e610000000000000000000000000000000000000000000000000000000014612153576040517f08c379a000000000000000000000000000000000000000000000000000000000815260206004820152602860248201527f455243313135353a204552433131353552656365697665722072656a6563746560448201527f6420746f6b656e730000000000000000000000000000000000000000000000006064820152608401610705565b600054610100900460ff16612faf576040517f08c379a000000000000000000000000000000000000000000000000000000000815260206004820152602b60248201527f496e697469616c697a61626c653a20636f6e7472616374206973206e6f74206960448201527f6e697469616c697a696e670000000000000000000000000000000000000000006064820152608401610705565b610bf3816116bd565b606061074e73ffffffffffffffffffffffffffffffffffffffff831660145b60606000612fe6836002614098565b612ff1906002613e26565b67ffffffffffffffff811115613009576130096136e8565b6040519080825280601f01601f191660200182016040528015613033576020820181803683370190505b5090507f30000000000000000000000000000000000000000000000000000000000000008160008151811061306a5761306a613cce565b60200101907effffffffffffffffffffffffffffffffffffffffffffffffffffffffffffff1916908160001a9053507f7800000000000000000000000000000000000000000000000000000000000000816001815181106130cd576130cd613cce565b60200101907effffffffffffffffffffffffffffffffffffffffffffffffffffffffffffff1916908160001a9053506000613109846002614098565b613114906001613e26565b90505b60018111156131b1577f303132333435363738396162636465660000000000000000000000000000000085600f166010811061315557613155613cce565b1a60f81b82828151811061316b5761316b613cce565b60200101907effffffffffffffffffffffffffffffffffffffffffffffffffffffffffffff1916908160001a90535060049490941c936131aa816140d5565b9050613117565b50831561321a576040517f08c379a000000000000000000000000000000000000000000000000000000000815260206004820181905260248201527f537472696e67733a20686578206c656e67746820696e73756666696369656e746044820152606401610705565b9392505050565b73ffffffffffffffffffffffffffffffffffffffff85166132b55760005b83518110156132b35782818151811061325a5761325a613cce565b60200260200101516097600086848151811061327857613278613cce565b60200260200101518152602001908152602001600020600082825461329d9190613e26565b909155506132ac905081613d2c565b905061323f565b505b73ffffffffffffffffffffffffffffffffffffffff8416611bc65760005b83518110156121535760008482815181106132f0576132f0613cce565b60200260200101519050600084838151811061330e5761330e613cce565b60200260200101519050600060976000848152602001908152602001600020549050818110156133c0576040517f08c379a000000000000000000000000000000000000000000000000000000000815260206004820152602860248201527f455243313135353a206275726e20616d6f756e74206578636565647320746f7460448201527f616c537570706c790000000000000000000000000000000000000000000000006064820152608401610705565b600092835260976020526040909220910390556133dc81613d2c565b90506132d3565b6133ec81612bdc565b60405173ffffffffffffffffffffffffffffffffffffffff8216907fbc7cd75a20ee27fd9adebab32041f755214dbc6bffa90cc0225b39da2e5c2d3b90600090a250565b606073ffffffffffffffffffffffffffffffffffffffff83163b6134d6576040517f08c379a000000000000000000000000000000000000000000000000000000000815260206004820152602660248201527f416464726573733a2064656c65676174652063616c6c20746f206e6f6e2d636f60448201527f6e747261637400000000000000000000000000000000000000000000000000006064820152608401610705565b6000808473ffffffffffffffffffffffffffffffffffffffff16846040516134fe919061410a565b600060405180830381855af49150503d8060008114613539576040519150601f19603f3d011682016040523d82523d6000602084013e61353e565b606091505b5091509150613566828260405180606001604052806027815260200161415d6027913961356f565b95945050505050565b6060831561357e57508161321a565b61321a8383815115612a4d5781518083602001fd5b5080546000825590600052602060002090810190610bf39190613635565b8280546135bd90613dd2565b90600052602060002090601f0160209004810192826135df5760008555613625565b82601f106135f857805160ff1916838001178555613625565b82800160010185558215613625579182015b8281111561362557825182559160200191906001019061360a565b50613631929150613635565b5090565b5b808211156136315760008155600101613636565b803573ffffffffffffffffffffffffffffffffffffffff8116811461366e57600080fd5b919050565b6000806040838503121561368657600080fd5b61368f8361364a565b946020939093013593505050565b7fffffffff0000000000000000000000000000000000000000000000000000000081168114610bf357600080fd5b6000602082840312156136dd57600080fd5b813561321a8161369d565b7f4e487b7100000000000000000000000000000000000000000000000000000000600052604160045260246000fd5b7fffffffffffffffffffffffffffffffffffffffffffffffffffffffffffffffe0601f830116810181811067ffffffffffffffff8211171561375b5761375b6136e8565b6040525050565b600067ffffffffffffffff83111561377c5761377c6136e8565b6040516137b160207fffffffffffffffffffffffffffffffffffffffffffffffffffffffffffffffe0601f8701160182613717565b8091508381528484840111156137c657600080fd5b83836020830137600060208583010152509392505050565b6000602082840312156137f057600080fd5b813567ffffffffffffffff81111561380757600080fd5b8201601f8101841361381857600080fd5b61382784823560208401613762565b949350505050565b60005b8381101561384a578181015183820152602001613832565b83811115612d0b5750506000910152565b6000815180845261387381602086016020860161382f565b601f017fffffffffffffffffffffffffffffffffffffffffffffffffffffffffffffffe0169290920160200192915050565b60208152600061321a602083018461385b565b6000602082840312156138ca57600080fd5b5035919050565b600067ffffffffffffffff8211156138eb576138eb6136e8565b5060051b60200190565b600082601f83011261390657600080fd5b81356020613913826138d1565b6040516139208282613717565b83815260059390931b850182019282810191508684111561394057600080fd5b8286015b8481101561395b5780358352918301918301613944565b509695505050505050565b600082601f83011261397757600080fd5b61321a83833560208501613762565b600080600080600060a0868803121561399e57600080fd5b6139a78661364a565b94506139b56020870161364a565b9350604086013567ffffffffffffffff808211156139d257600080fd5b6139de89838a016138f5565b945060608801359150808211156139f457600080fd5b613a0089838a016138f5565b93506080880135915080821115613a1657600080fd5b50613a2388828901613966565b9150509295509295909350565b60008060408385031215613a4357600080fd5b82359150613a536020840161364a565b90509250929050565b600060208284031215613a6e57600080fd5b61321a8261364a565b60008060408385031215613a8a57600080fd5b823567ffffffffffffffff80821115613aa257600080fd5b818501915085601f830112613ab657600080fd5b81356020613ac3826138d1565b604051613ad08282613717565b83815260059390931b8501820192828101915089841115613af057600080fd5b948201945b83861015613b1557613b068661364a565b82529482019490820190613af5565b96505086013592505080821115613b2b57600080fd5b50613b38858286016138f5565b9150509250929050565b600081518084526020808501945080840160005b83811015613b7257815187529582019590820190600101613b56565b509495945050505050565b60208152600061321a6020830184613b42565b60008060408385031215613ba357600080fd5b613bac8361364a565b9150602083013567ffffffffffffffff811115613bc857600080fd5b613b3885828601613966565b60008060408385031215613be757600080fd5b613bf08361364a565b915060208301358015158114613c0557600080fd5b809150509250929050565b60008060408385031215613c2357600080fd5b613c2c8361364a565b9150613a536020840161364a565b600080600080600060a08688031215613c5257600080fd5b613c5b8661364a565b9450613c696020870161364a565b93506040860135925060608601359150608086013567ffffffffffffffff811115613c9357600080fd5b613a2388828901613966565b60008351613cb181846020880161382f565b835190830190613cc581836020880161382f565b01949350505050565b7f4e487b7100000000000000000000000000000000000000000000000000000000600052603260045260246000fd5b7f4e487b7100000000000000000000000000000000000000000000000000000000600052601160045260246000fd5b60007fffffffffffffffffffffffffffffffffffffffffffffffffffffffffffffffff821415613d5e57613d5e613cfd565b5060010190565b604080825283519082018190526000906020906060840190828701845b82811015613db457815173ffffffffffffffffffffffffffffffffffffffff1684529284019290840190600101613d82565b50505083810382850152613dc88186613b42565b9695505050505050565b600181811c90821680613de657607f821691505b60208210811415613e20577f4e487b7100000000000000000000000000000000000000000000000000000000600052602260045260246000fd5b50919050565b60008219821115613e3957613e39613cfd565b500190565b604081526000613e516040830185613b42565b82810360208401526135668185613b42565b600060208284031215613e7557600080fd5b5051919050565b7f416363657373436f6e74726f6c3a206163636f756e7420000000000000000000815260008351613eb481601785016020880161382f565b7f206973206d697373696e6720726f6c65200000000000000000000000000000006017918401918201528351613ef181602884016020880161382f565b01602801949350505050565b600073ffffffffffffffffffffffffffffffffffffffff808816835280871660208401525060a06040830152613f3660a0830186613b42565b8281036060840152613f488186613b42565b90508281036080840152613f5c818561385b565b98975050505050505050565b600060208284031215613f7a57600080fd5b815161321a8161369d565b600060033d11156111775760046000803e5060005160e01c90565b600060443d1015613fae5790565b6040517ffffffffffffffffffffffffffffffffffffffffffffffffffffffffffffffffc803d016004833e81513d67ffffffffffffffff8160248401118184111715613ffc57505050505090565b82850191508151818111156140145750505050505090565b843d870101602082850101111561402e5750505050505090565b61403d60208286010187613717565b509095945050505050565b600073ffffffffffffffffffffffffffffffffffffffff808816835280871660208401525084604083015283606083015260a0608083015261408d60a083018461385b565b979650505050505050565b6000817fffffffffffffffffffffffffffffffffffffffffffffffffffffffffffffffff04831182151516156140d0576140d0613cfd565b500290565b6000816140e4576140e4613cfd565b507fffffffffffffffffffffffffffffffffffffffffffffffffffffffffffffffff0190565b6000825161411c81846020870161382f565b919091019291505056fe697066733a2f2f516d593472347362594572595144435251446a35523751686f4d7879704d6e45465037464645756435574b6334482f416464726573733a206c6f772d6c6576656c2064656c65676174652063616c6c206661696c6564a2646970667358221220042720cfa8efb5b347f98a249359ab2943c2aa0313b2b2a6880e15f4b5f4af8f64736f6c63430008090033",
  "linkReferences": {},
  "deployedLinkReferences": {}
}